{
  "_format": "hh-sol-artifact-1",
  "contractName": "Election",
  "sourceName": "contracts/Election.sol",
  "abi": [
    {
      "inputs": [
        {
          "internalType": "string[]",
          "name": "candidateNames",
          "type": "string[]"
        }
      ],
      "stateMutability": "nonpayable",
      "type": "constructor"
    },
    {
      "anonymous": false,
      "inputs": [
        {
          "indexed": true,
          "internalType": "address",
          "name": "voter",
          "type": "address"
        },
        {
          "indexed": false,
          "internalType": "uint256",
          "name": "candidateId",
          "type": "uint256"
        }
      ],
      "name": "Voted",
      "type": "event"
    },
    {
      "inputs": [
        {
          "internalType": "uint256",
          "name": "",
          "type": "uint256"
        }
      ],
      "name": "candidates",
      "outputs": [
        {
          "internalType": "uint256",
          "name": "id",
          "type": "uint256"
        },
        {
          "internalType": "string",
          "name": "name",
          "type": "string"
        },
        {
          "internalType": "uint256",
          "name": "voteCount",
          "type": "uint256"
        }
      ],
      "stateMutability": "view",
      "type": "function"
    },
    {
      "inputs": [],
      "name": "candidatesCount",
      "outputs": [
        {
          "internalType": "uint256",
          "name": "",
          "type": "uint256"
        }
      ],
      "stateMutability": "view",
      "type": "function"
    },
    {
      "inputs": [
        {
          "internalType": "uint256",
          "name": "candidateId",
          "type": "uint256"
        }
      ],
      "name": "getResults",
      "outputs": [
        {
          "internalType": "uint256",
          "name": "",
          "type": "uint256"
        }
      ],
      "stateMutability": "view",
      "type": "function"
    },
    {
      "inputs": [
        {
          "internalType": "address",
          "name": "",
          "type": "address"
        }
      ],
      "name": "hasVoted",
      "outputs": [
        {
          "internalType": "bool",
          "name": "",
          "type": "bool"
        }
      ],
      "stateMutability": "view",
      "type": "function"
    },
    {
      "inputs": [
        {
          "internalType": "uint256",
          "name": "candidateId",
          "type": "uint256"
        }
      ],
      "name": "vote",
      "outputs": [],
      "stateMutability": "nonpayable",
      "type": "function"
    }
  ],
  "bytecode": "0x60806040523480156200001157600080fd5b5060405162000f8c38038062000f8c833981810160405281019062000037919062000385565b60005b8151811015620000ee5760405180606001604052808281526020018383815181106200006b576200006a620003d6565b5b602002602001015181526020016000815250600080838152602001908152602001600020600082015181600001556020820151816001019081620000b0919062000650565b506040820151816002015590505060026000815480929190620000d39062000766565b91905055508080620000e59062000766565b9150506200003a565b5050620007b3565b6000604051905090565b600080fd5b600080fd5b600080fd5b6000601f19601f8301169050919050565b7f4e487b7100000000000000000000000000000000000000000000000000000000600052604160045260246000fd5b6200015a826200010f565b810181811067ffffffffffffffff821117156200017c576200017b62000120565b5b80604052505050565b600062000191620000f6565b90506200019f82826200014f565b919050565b600067ffffffffffffffff821115620001c257620001c162000120565b5b602082029050602081019050919050565b600080fd5b600080fd5b600067ffffffffffffffff821115620001fb57620001fa62000120565b5b62000206826200010f565b9050602081019050919050565b60005b838110156200023357808201518184015260208101905062000216565b60008484015250505050565b6000620002566200025084620001dd565b62000185565b905082815260208101848484011115620002755762000274620001d8565b5b6200028284828562000213565b509392505050565b600082601f830112620002a257620002a16200010a565b5b8151620002b48482602086016200023f565b91505092915050565b6000620002d4620002ce84620001a4565b62000185565b90508083825260208201905060208402830185811115620002fa57620002f9620001d3565b5b835b818110156200034857805167ffffffffffffffff8111156200032357620003226200010a565b5b8086016200033289826200028a565b85526020850194505050602081019050620002fc565b5050509392505050565b600082601f8301126200036a57620003696200010a565b5b81516200037c848260208601620002bd565b91505092915050565b6000602082840312156200039e576200039d62000100565b5b600082015167ffffffffffffffff811115620003bf57620003be62000105565b5b620003cd8482850162000352565b91505092915050565b7f4e487b7100000000000000000000000000000000000000000000000000000000600052603260045260246000fd5b600081519050919050565b7f4e487b7100000000000000000000000000000000000000000000000000000000600052602260045260246000fd5b600060028204905060018216806200045857607f821691505b6020821081036200046e576200046d62000410565b5b50919050565b60008190508160005260206000209050919050565b60006020601f8301049050919050565b600082821b905092915050565b600060088302620004d87fffffffffffffffffffffffffffffffffffffffffffffffffffffffffffffffff8262000499565b620004e4868362000499565b95508019841693508086168417925050509392505050565b6000819050919050565b6000819050919050565b6000620005316200052b6200052584620004fc565b62000506565b620004fc565b9050919050565b6000819050919050565b6200054d8362000510565b620005656200055c8262000538565b848454620004a6565b825550505050565b600090565b6200057c6200056d565b6200058981848462000542565b505050565b5b81811015620005b157620005a560008262000572565b6001810190506200058f565b5050565b601f8211156200060057620005ca8162000474565b620005d58462000489565b81016020851015620005e5578190505b620005fd620005f48562000489565b8301826200058e565b50505b505050565b600082821c905092915050565b6000620006256000198460080262000605565b1980831691505092915050565b600062000640838362000612565b9150826002028217905092915050565b6200065b8262000405565b67ffffffffffffffff81111562000677576200067662000120565b5b6200068382546200043f565b62000690828285620005b5565b600060209050601f831160018114620006c85760008415620006b3578287015190505b620006bf858262000632565b8655506200072f565b601f198416620006d88662000474565b60005b828110156200070257848901518255600182019150602085019450602081019050620006db565b868310156200072257848901516200071e601f89168262000612565b8355505b6001600288020188555050505b505050505050565b7f4e487b7100000000000000000000000000000000000000000000000000000000600052601160045260246000fd5b60006200077382620004fc565b91507fffffffffffffffffffffffffffffffffffffffffffffffffffffffffffffffff8203620007a857620007a762000737565b5b600182019050919050565b6107c980620007c36000396000f3fe608060405234801561001057600080fd5b50600436106100575760003560e01c80630121b93f1461005c57806309eef43e146100785780632d35a8a2146100a85780633477ee2e146100c657806381a60c0d146100f8575b600080fd5b610076600480360381019061007191906103fe565b610128565b005b610092600480360381019061008d9190610489565b6102cc565b60405161009f91906104d1565b60405180910390f35b6100b06102ec565b6040516100bd91906104fb565b60405180910390f35b6100e060048036038101906100db91906103fe565b6102f2565b6040516100ef939291906105a6565b60405180910390f35b610112600480360381019061010d91906103fe565b6103a4565b60405161011f91906104fb565b60405180910390f35b600160003373ffffffffffffffffffffffffffffffffffffffff1673ffffffffffffffffffffffffffffffffffffffff16815260200190815260200160002060009054906101000a900460ff16156101b5576040517f08c379a00000000000000000000000000000000000000000000000000000000081526004016101ac90610630565b60405180910390fd5b60025481106101f9576040517f08c379a00000000000000000000000000000000000000000000000000000000081526004016101f09061069c565b60405180910390fd5b600080828152602001908152602001600020600201600081548092919061021f906106eb565b919050555060018060003373ffffffffffffffffffffffffffffffffffffffff1673ffffffffffffffffffffffffffffffffffffffff16815260200190815260200160002060006101000a81548160ff0219169083151502179055503373ffffffffffffffffffffffffffffffffffffffff167f4d99b957a2bc29a30ebd96a7be8e68fe50a3c701db28a91436490b7d53870ca4826040516102c191906104fb565b60405180910390a250565b60016020528060005260406000206000915054906101000a900460ff1681565b60025481565b600060205280600052604060002060009150905080600001549080600101805461031b90610762565b80601f016020809104026020016040519081016040528092919081815260200182805461034790610762565b80156103945780601f1061036957610100808354040283529160200191610394565b820191906000526020600020905b81548152906001019060200180831161037757829003601f168201915b5050505050908060020154905083565b6000806000838152602001908152602001600020600201549050919050565b600080fd5b6000819050919050565b6103db816103c8565b81146103e657600080fd5b50565b6000813590506103f8816103d2565b92915050565b600060208284031215610414576104136103c3565b5b6000610422848285016103e9565b91505092915050565b600073ffffffffffffffffffffffffffffffffffffffff82169050919050565b60006104568261042b565b9050919050565b6104668161044b565b811461047157600080fd5b50565b6000813590506104838161045d565b92915050565b60006020828403121561049f5761049e6103c3565b5b60006104ad84828501610474565b91505092915050565b60008115159050919050565b6104cb816104b6565b82525050565b60006020820190506104e660008301846104c2565b92915050565b6104f5816103c8565b82525050565b600060208201905061051060008301846104ec565b92915050565b600081519050919050565b600082825260208201905092915050565b60005b83811015610550578082015181840152602081019050610535565b60008484015250505050565b6000601f19601f8301169050919050565b600061057882610516565b6105828185610521565b9350610592818560208601610532565b61059b8161055c565b840191505092915050565b60006060820190506105bb60008301866104ec565b81810360208301526105cd818561056d565b90506105dc60408301846104ec565b949350505050565b7f596f75206861766520616c726561647920766f7465642e000000000000000000600082015250565b600061061a601783610521565b9150610625826105e4565b602082019050919050565b600060208201905081810360008301526106498161060d565b9050919050565b7f496e76616c69642063616e6469646174652049442e0000000000000000000000600082015250565b6000610686601583610521565b915061069182610650565b602082019050919050565b600060208201905081810360008301526106b581610679565b9050919050565b7f4e487b7100000000000000000000000000000000000000000000000000000000600052601160045260246000fd5b60006106f6826103c8565b91507fffffffffffffffffffffffffffffffffffffffffffffffffffffffffffffffff8203610728576107276106bc565b5b600182019050919050565b7f4e487b7100000000000000000000000000000000000000000000000000000000600052602260045260246000fd5b6000600282049050600182168061077a57607f821691505b60208210810361078d5761078c610733565b5b5091905056fea264697066735822122098c31926b07c1c065fad86c13d46482687ec29dabc84cc60351e0e28d63bac5564736f6c63430008130033",
  "linkReferences": {},
  "deployedLinkReferences": {}
}